:020000040800F2
:10000000F0060020490100083F0A0008370A0008EE
:100010003B0A000813090008B110000800000000A6
:10002000000000000000000000000000A50B000818
:100030001709000800000000550A0008B90C000864
:100040006301000863010008630100086301000800
:1000500063010008630100086301000863010008F0
:1000600063010008630100086301000863010008E0
:1000700063010008630100086301000863010008D0
:1000800063010008630100086301000863010008C0
:1000900063010008630100086301000863010008B0
:1000A00063010008630100086301000863010008A0
:1000B0006301000863010008630100086301000890
:1000C0006301000863010008630100086301000880
:1000D0006301000863010008630100086301000870
:1000E0006301000863010008630100086301000860
:1000F0006301000863010008630100086301000850
:1001000063010008630100081D0D00086301000879
:10011000630100086301000863010008630100082F
:10012000630100086301000863010008630100081F
:10013000DFF810D000F0E6FA004800478F140008FE
:10014000AFF30080F00600200648804706480047CD
:10015000FEE7FEE7FEE7FEE7FEE7FEE7FEE7FEE777
:10016000FEE7FEE7BD0C00083101000880EA01024D
:1001700010B502F00043400022D04A001FD0010E0B
:1001800001EB1261C0F35600C2F3560240F40000C6
:1001900042F40002A0FB022000047F39140400D0C6
:1001A000401C50EA124001D44000491EC2B20C0665
:1001B00004EBD010401C4008802A02D003E000204D
:1001C00010BD20F00100002900DA0020184310BD06
:1001D0002DE9FE4F804681EA0300C00F0C460090D7
:1001E00021F0004123F00045B8EB0200A94105D2FF
:1001F0004046214690461C460B46024623F00040EE
:10020000104347D0270DC7F30A00C3F30A510290E9
:10021000401A019040286BDAC3F3130040F4801BAE
:100220000098924620B10023D2EB030A63EB0B0B3C
:1002300001985946C0F14002504600F09DF906462B
:100240000D4650465946019A00F0B5F910EB0800EA
:100250006141002487EA115284EAE7731A4340D0CF
:10026000009A62B3019A012A4FEA075215DC001B7B
:1002700061EB02014FF0004202EA0752CDE9004271
:10028000001C41F5801132462B4600F0ECF903B01A
:10029000BDE8F08F40462146F9E7001B61EB020103
:1002A000001C41F5801300185B412018A2F50017CF
:1002B00047EB030140EAD570B6196D4111E06D08B6
:1002C0004FEA360645EAC0754FEA0752001B61EB5C
:1002D0000201001C41F5801149084FEA3000001965
:1002E000514132462B4603B0BDE8F04F00F0ACB9A7
:1002F0000098012240000023D0EB020263EBE07380
:10030000009821464FEAE074B8EB000061EB04016D
:10031000E9E783F000435BE781F0004158E72DE90E
:10032000FE4F81EA030404F0004421F000410094F0
:100330004FF0000B23F0004350EA01045ED052EA74
:1003400003045BD0C3F30A54C1F30A552C44A4F24E
:10035000F3340194A0FB0254C1F3130141F4801162
:10036000C3F3130343F4801301FB024400FB034E69
:10037000840A970A44EA815447EA8357A4FB076832
:1003800002958D0A05FB07854FEA932C04FB0C545C
:100390002705029D4FEA065847EA1637B5EB0805D0
:1003A0006EEB070C870E920E47EA811742EA831222
:1003B000A7FB0201B6EB0B0164EB00042B0D43EA33
:1003C0000C335E1844EB1C50DA465146E7FB020141
:1003D000C5F313044FEA0B3343EA14534FEA0432D4
:1003E000019C43EA0603A4F10C040294009CCDE9AD
:1003F00000B400F038F903B0BDE8F08F00200146EA
:10040000F9E72DE9F04D81EA030404F0004B21F0F7
:10041000004514464FF0000A23F0004150EA05025F
:1004200020D054EA01021DD0C5F30A570246C5F395
:100430001303C1F31300C1F30A5640F4801543F4CB
:100440008013A7EB0608101BD64608F2FD3873EBA5
:10045000050002D308F1010801E092185B41B8F1F0
:10046000000F03DA00200146BDE8F08D00204FF4B4
:100470008011064684460EE0171B73EB050705D373
:10048000121B63EB050306434CEA010C49084FEAD3
:10049000300092185B4150EA0107EDD152EA0300A7
:1004A00012D082EA040083EA0501084305D0101B3C
:1004B000AB4106D20122002306E000224FF00043A8
:1004C00002E06FF0010253101AEB06004CEB0851EA
:1004D00010EB0A0041EB0B01BDE8F04D00F0B4B8A1
:1004E000C10F80EAE0700844CA079623002100F09B
:1004F0007DB80EB5C10F80EAE0700844CA0700213C
:1005000040F233438DE80E000A460B4600F0ABF88C
:1005100003B000BD70B5C1F30A5201F000450024DC
:10052000C1F3130140F2FF3341F480119A4201DA22
:10053000002070BD40F233439A42A2F2334203DC02
:10054000524200F028F800E090402C43F1D04042A5
:1005500070BD00F0004230F000400AD0C10D01F53E
:100560006071C0F3160042EA0151C208400711430E
:100570007047002001467047202A04DB203A00FA29
:1005800002F1002070479140C2F1200320FA03F3EA
:10059000194390407047202A04DB203A21FA02F0E8
:1005A0000021704721FA02F3D040C2F120029140AD
:1005B000084319467047202A06DBCB17203A41FA38
:1005C00002F043EAE07306E041FA02F3D040C2F1E0
:1005D000200291400843194670470029A8BF704780
:1005E000401C490008BF20F00100704710B4B0FA69
:1005F00080FC00FA0CF050EA010404BF10BC704704
:1006000049B1CCF1200421FA04F411FA0CF118BF1D
:10061000012121430843A3EB0C01CB1D4FEA0061EC
:100620004FEA102042BF002010BC704700EBC350BF
:1006300010440029A4BF10BC7047401C490008BFEB
:1006400020F0010010BC704710B5141E73F10004B7
:1006500008DA401C41F1000192185B411A4301D1B4
:1006600020F0010010BD2DE9F04D92469B4611B1DE
:10067000B1FA81F202E0B0FA80F220329046FFF740
:100680007BFF04460F4640EA0A0041EA0B0153464D
:100690005A46084313D0114653EA010019D0C8F155
:1006A00040025046FFF777FF05460E465046594632
:1006B0004246FFF761FF084305D0012004E02046D1
:1006C0003946BDE8F08D0020054346EAE0762C432C
:1006D00037430A986305E40AA0EB08000022FD0AEC
:1006E00044EA47540A3002D500200146E9E70105F3
:1006F00010196941DDE9084500196941BDE8F04D6F
:10070000A2E70000064C074D06E0E06840F0010358
:1007100094E8070098471034AC42F6D3FFF70CFD7D
:10072000741900089419000821B1826842F001028E
:10073000826003E0826822F001028260704700005C
:1007400010B504461248844208D10121401500F03A
:10075000AFF90021601500F0ABF917E00D488442B5
:1007600008D10121001500F0A3F90021201500F0A7
:100770009FF90BE00848844208D10121C80300F02A
:1007800097F900214FF4004000F092F910BD0000ED
:100790000024014000280140003C014001460020A7
:1007A0008A6802F004020AB1012000E000207047CC
:1007B0000146C86C80B270470246002013680B40A7
:1007C0000BB1012000E000207047014600208A683C
:1007D00002F008020AB1012000E00020704700008A
:1007E00030B502460020002350680F4C20400D79A0
:1007F0000C6844EA05242043506090680B4C20406C
:10080000D1E902542C434D7944EA450420439060D9
:10081000D06A20F470000C7C641EE4B2234340EAEA
:100820000350D06230BD0000FFFEF0FFFDF7F1FF86
:10083000F0B504460D4600200021092D11DDE068C9
:10084000A5F10A0606EB4607072606FA07F18843D4
:10085000A5F10A0606EB460603FA06F10843E06036
:100860000CE0206905EB4507072606FA07F18843E7
:1008700005EB450603FA06F108432061072A0FDA63
:10088000606B561E06EB86071F2606FA07F18843A3
:10089000561E06EB860605FA06F10843606322E061
:1008A0000D2A0FDA206BD61F06EB86071F2606FAE5
:1008B00007F18843D61F06EB860605FA06F10843C2
:1008C000206310E0E06AA2F10D0606EB86071F2602
:1008D00006FA07F18843A2F10D0606EB860605FA33
:1008E00006F10843E062F0BD816841F008018160D3
:1008F000704721B1826842F4A002826003E08268FE
:1009000022F4A00282607047816841F00401816096
:10091000704700BFFEE770472DE9F0410246002511
:100920000026002000230024002791F803C00CF0CB
:100930000F0591F803C00CF0100CBCF1000F03D0B0
:1009400091F802C04CEA050591F800C0BCF1000F17
:1009500031D0146800202BE04FF0010C0CFA00F3AA
:10096000B1F800C00CEA03069E4220D183004FF08C
:100970000F0C0CFA03F7BC4305FA03FC4CEA040421
:1009800091F803C0BCF1280F06D14FF0010C0CFA0E
:1009900000FCC2F814C00AE091F803C0BCF1480F93
:1009A00005D14FF0010C0CFA00FCC2F810C0401C3D
:1009B0000828D1D31460B1F800C0BCF1FF0F34DDBA
:1009C000546800202EE000F1080C4FF0010808FAEE
:1009D0000CF3B1F800C00CEA03069E4221D183005B
:1009E0004FF00F0C0CFA03F7BC4305FA03FC4CEA7A
:1009F000040491F803C0BCF1280F05D100F1080CE4
:100A000008FA0CF8C2F8148091F803C0BCF1480F42
:100A100007D100F1080C4FF0010808FA0CF8C2F8F1
:100A20001080401C0828CED35460BDE8F08141619D
:100A300070470161704700BFFEE700BFFEE77047E7
:100A400002490143024A1160704700000000FA05A4
:100A50000CED00E07047000001460020034A50689A
:100A600020F44040084350607047000000100240EE
:100A700029B1064AD2690243044BDA6104E0034A11
:100A8000D2698243014BDA617047000000100240D6
:100A900029B1064A92690243044B9A6104E0034A71
:100AA00092698243014B9A61704700000010024036
:100AB00029B1064AD2680243044BDA6004E0034AD3
:100AC000D2688243014BDA60704700000010024098
:100AD00030B500210022002400232D4D6D6805F063
:100AE0000C0121B1042905D0082923D105E0294DA5
:100AF000056022E0274D05601FE0254D6D6805F477
:100B00007012234D6D6805F48034022505EB924286
:100B10001CB9214D554305600BE01D4D6D6805F472
:100B200000351DB11C4D5543056002E0194D55437C
:100B3000056002E0174D056000BF00BF144D6D68F1
:100B400005F0F0010909154D6B5C0568DD40456055
:100B50000F4D6D6805F4E061090A104D6B5C456846
:100B6000DD4085600A4D6D6805F46051C90A0B4D82
:100B70006B5C4568DD40C560054D6D6805F440411E
:100B8000890B074D6B5CC568B5FBF3F5056130BD9E
:100B90000010024000127A0000093D0039000020D8
:100BA00049000020704710B500F002F810BD0000A9
:100BB0000CB50020019000903348006840F480306C
:100BC0003149086000BF3048006800F400300090F0
:100BD0000198401C0190009818B90198B0F5A06FD9
:100BE000F1D12948006800F4003010B101200090D4
:100BF00001E0002000900098012843D123480068BC
:100C000040F01000214908600846006820F0030009
:100C100008600846006840F0020008601A48406812
:100C2000194948600846406848600846406840F4F2
:100C3000806048600846406820F47C1048600846A0
:100C4000406840F4E81048600846006840F0807052
:100C5000086000BF0C48006800F000700028F9D060
:100C60000948406820F0030007494860084640688A
:100C700040F00200486000BF0348406800F00C00EC
:100C80000828F9D10CBD00000010024000200240ED
:100C9000042808D14FF0E021096941F004014FF028
:100CA000E022116107E04FF0E021096921F0040121
:100CB0004FF0E022116170477047000010B51348F3
:100CC000006840F00100114908600846406810497A
:100CD00008400E494860084600680E4908400B4924
:100CE00008600846006820F48020086008464068D4
:100CF00020F4FE0048604FF41F008860FFF753FFA8
:100D00004FF000600449086010BD00000010024070
:100D10000000FFF8FFFFF6FE08ED00E010B501212E
:100D20000C4800F02EF898B101210A4800F01AF89A
:100D30000948008800B20949088000200649088057
:100D40000748008800B2054948800020044908800F
:100D500010BD0000000C0040240800401A000020D4
:100D6000242C0140CA430282704721B1028842F01C
:100D70000102028004E002884FF6FE731A400280EE
:100D8000704730B50246002000230024158A05EA8A
:100D90000103958905EA010413B10CB1012000E0BB
:100DA000002030BD70B5002400220023058C4FF6D2
:100DB000FF6635400584028C8388848B4FF68F75DF
:100DC0002C404FF6FC752C400D882C434FF6FF55F8
:100DD0002A400D894FF6FF7606EA05252A434D88FD
:100DE00006EA05252A43154DA84202D0144DA84213
:100DF0001DD14FF2FF752A404D894FF6FF7606EA66
:100E000005252A434FF6FF352A408D8806EA052539
:100E10002A434EF6FF752B404DF6FF752B408D890A
:100E200006EA05152B43CD8906EA05152B43838079
:100E30008483CD888587028470BD0000002C01402A
:100E4000003401400A460021818B4FF6F7731940A8
:100E5000114381837047000070B5002200230024F5
:100E6000058C4EF6FF7635400584038C8488828B92
:100E700048F6FF752A404FF6FF452A400D884FF689
:100E8000FF7606EA05252A434DF6FF752B400D89AE
:100E900006EA05352B434D8806EA05352B430B4DF5
:100EA000A84202D00A4DA84208D14BF6FF752C404B
:100EB0008D894FF6FF7606EA85152C438480828360
:100EC000CD88A0F84050038470BD0000002C014084
:100ED000003401400A460021818B4FF2FF73194014
:100EE0004FF6FF7303EA022319438183704781871A
:100EF0007047A0F840107047002202881D4B9842AE
:100F00000ED01D4B98420BD0B0F1804F08D01B4B38
:100F1000984205D01A4B984202D01A4B984204D1FD
:100F20004FF68F731A404B881A43174B984207D0DD
:100F3000164B984204D04FF6FF431A40CB881A4311
:100F400002808B8883850B8803850A4B98420BD0DF
:100F5000094B984208D00E4B984205D00D4B984251
:100F600002D00D4B984201D10B7A03860123838274
:100F700070470000002C0140003401400004004094
:100F800000080040000C0040001000400014004029
:100F900000400140004401400048014021B18289E5
:100FA00042F40052828104E082894DF6FF731A40B8
:100FB0008281704702460020B1F5007F00D100BF5A
:100FC00013880B400BB1012000E0002070470000A7
:100FD0002DE9F04786B005460E460024A24600BF24
:100FE000A1460027B08900B100BF2F462C8A4CF6DD
:100FF000FF700440F08804432C82AC894EF6F31055
:101000000440B08831890843718908430443AC81A6
:10101000AC8A4FF6FF400440B0890443AC8201A87B
:10102000FFF756FD1F48874202D1DDF810A001E00E
:10103000DDF80CA0A88900F4004040B10AEBCA001A
:1010400000EB0A1031684900B0FBF1F807E00AEB49
:10105000CA0000EB0A1031688900B0FBF1F8642087
:10106000B8FBF0F004012009642101FB1089A88974
:1010700000F4004040B1322000EBC900B0FBF1F0B9
:1010800000F00700044308E0322000EB091064215F
:10109000B0FBF1F000F00F0004432C8106B0BDE876
:1010A000F087000000380140C1F3080282807047D9
:1010B00000BFFEE702E008C8121F08C1002AFAD1EB
:1010C00070477047002001E001C1121F002AFBD1C8
:1010D00070472DE9FC410746002407E0384600F040
:1010E00029F8C0B20DF80400601CC4B2052CF5DB71
:1010F000002418E02046611CCDB208E01DF8051060
:101100001DF80020914200DA2846691CCDB2052D59
:10111000F4DB1DF804601DF800100DF804100DF844
:101120000060601CC4B2042CE4DB9DF80200BDE842
:10113000FC81000010B50446002301222146094825
:10114000FFF776FB01210748FFF7D3FB00BF022121
:101150000448FFF731FB0028F9D00248FFF728FBCD
:1011600010BD00000024014000B587B001214FF4FC
:101170000170FFF78DFC4FF40040FFF76DFC02207B
:10118000ADF8040000208DF8070001A91848FFF70A
:10119000C3FB1848FFF7D4FA002002908DF80C002A
:1011A0008DF80D004FF46020049000200590012080
:1011B0008DF8180002A90F48FFF712FB01210D4816
:1011C000FFF7B2FA0B48FFF78FFB00BF0948FFF7A4
:1011D000FCFA0028FAD10748FFF796FB00BF054844
:1011E000FFF7DCFA0028FAD1012007B000BD0000AB
:1011F000000801400024014070B50446002601208B
:101200002849086000F094F801202749C1F88001BE
:1012100000F08EF8002023490860C82000F088F80C
:101220000120FFF756FF2070641C00201E49C1F802
:101230008001002518E0022000F07AF80120194909
:1012400010390860022000F073F80120FFF741FF19
:1012500020702078FF2801D1FE202070641C00201F
:101260001049103908606D1C7F2DE4DB022000F06E
:101270005FF801200B4910390860022000F058F88F
:1012800000200949C1F88001084800F066F80748C5
:1012900000F063F8054800F087F800F0B3F8304636
:1012A00070BD00009001214200002142700000202A
:1012B00008B501210420FFF7EBFB10208DF8030097
:1012C0001120ADF8000003208DF8020069460248A5
:1012D000FFF722FB012008BD0008014010B5FFF711
:1012E000E7FFFFF741FF012010BD000010B56FF0D0
:1012F0000400FFF7CDFC0A4800680A49B0FBF1F092
:10130000094908700846007800EB4001C1EBC010A5
:101310004FF6FF7101EAC0000449088010BD0000CB
:101320000000002000127A001600002018000020A3
:1013300008B500210EE00022009206E000BF00BFC9
:101340009DF80020521CD2B200929DF80020012A84
:10135000F4DB491C8142EEDB08BD002121E041B9EC
:10136000425C4B1CC35C1A44032392FBF3F24254CD
:1013700015E07F2908D1425C4B1EC35C1A4403234D
:1013800092FBF3F242540AE04A1E825C435C13442F
:101390004A1C825C1A44032392FBF3F242544A1C17
:1013A000D1B28029DBDB7047002109E0425CFA2AD8
:1013B00002DDFE22425401E0012242544A1CD1B215
:1013C0008029F3DB704770B5024600240025002316
:1013D00000210FE023B9505CFE2801D101230C4607
:1013E000012B05D1505C012802D100230D4603E0FA
:1013F000481CC1B28029EDDB00BF661906EBD67030
:10140000401070BD10B5044800F084FA034800F0A5
:1014100081FA012010BD000070000020380000207B
:1014200010B54FF480510448FFF703FB3C210348FB
:10143000FFF7FFFA012010BD000C01400018014029
:1014400008B501214820FFF723FB3C20ADF8000040
:1014500010208DF8030003208DF80200694606482D
:10146000FFF75AFA4FF48050ADF800006946034880
:10147000FFF752FA012008BD00180140000C01409E
:1014800010B5FFF7DDFFFFF7CBFF012010BD0121F5
:101490000846FFF7FDFA4FF4A060FFF7D1FAFFF717
:1014A00025FF4FF4165000F0F7F900F03BF8FFF776
:1014B000E7FFFFF713FF00F0D9F901E000F048FA69
:1014C000FCE7000010B5A0210448FFF7B2FA4FF482
:1014D000A0710248FFF7ABFA012010BD00080140DF
:1014E00008B501210420FFF7D3FA4FF4F070ADF8EE
:1014F000000010208DF8030003208DF802006946DB
:101500000748FFF709FA0C20ADF8000018208DF805
:10151000030069460248FFF7FFF9012008BD0000FB
:101520000008014010B5FFF7DBFF022140F60B6019
:1015300000F055F9FFF7C6FF4FF4FA600449086060
:1015400048600A465168106800F03AF9012010BD61
:101550002C0000202DE9F04792B08246AAF13C0011
:10156000FEF7C7FF904A03C28F48D0E902633246B4
:10157000D0E900412046FEF7CCFE8B4AC2E90601C5
:101580001046D0E90010C2E902101046D0E900630D
:101590003246D0E904412046FEF71AFE824AC2E9EB
:1015A000040182480068FEF79BFF07468048816877
:1015B0003846FEF7DBFD0646FEF7CBFF80467A484D
:1015C000D0E9066332464046FEF7A9FE04460022F3
:1015D000784BFEF716FFCDE90E0175494868FEF716
:1015E000B8FF80467048D0E9046332464046FEF7B3
:1015F00096FE044600226F4BFEF703FFCDE90A0179
:101600006A480068FEF775FFCDE90401684908687B
:10161000FEF79FFFCDE900016349D1E9006332463F
:101620000199FEF77CFECDE90201DDE90423FEF716
:1016300076FE04460022604BFEF7E3FECDE906018C
:101640005A480068FEF755FF8046DDE90623FEF79D
:10165000BFFDCDE90801DDE90A23FEF7B9FDCDE9BB
:101660000C01DDE90E23FEF7B3FDCDE91001FEF715
:1016700051FF524908604D480068FEF731FF0746A8
:101680004B4881683846FEF771FD0646FEF761FF5C
:1016900080464548D0E9066332464046FEF73FFEA5
:1016A00004460022434BFEF7ACFECDE90E01404953
:1016B0004868FEF74EFF04463B48D0E904633246D3
:1016C0002046FEF72CFE804600223A4BFEF799FE9C
:1016D000CDE90A0135480068FEF70BFFCDE90401AA
:1016E00033490868FEF735FFCDE900012E48D0E9FF
:1016F000006332460098FEF712FECDE90201DDE9F3
:101700000423FEF70CFE044600222B4BFEF779FE65
:101710008046894625480068FEF7EBFE42464B4668
:10172000CDE90601FEF7F5FDCDE90801DDE90A2363
:10173000FEF7EFFDCDE90C01DDE90E23FEF7E9FD33
:10174000CDE91001FEF7E6FE1C4948600846006836
:1017500040F6C411884202DD08461849086017485F
:10176000406840F6C411884202DD084613494860CB
:1017700012480068B0F57A7F03DA4FF47A700F49A7
:1017800008600E484068B0F57A7F03DA4FF47A704B
:101790000A494860094A5168106800F011F80120B0
:1017A00012B0BDE8F0870000500000203400002097
:1017B0002000002000408F400040BF402C0000204F
:1017C00070B504460D46A1B24FF08040FFF78FFB85
:1017D000A9B24FF08040FFF78CFB012070BD30B5FF
:1017E00087B005460C4601210846FFF741F9A8B22B
:1017F000ADF81400A0B2ADF810000020ADF816004E
:10180000ADF8120004A94FF08040FFF775FB70207F
:10181000ADF800000120ADF802000020ADF8040092
:101820000220ADF808000020ADF80A004FF48070E7
:10183000ADF80C000020ADF80E0069464FF0804076
:10184000FFF7B0FA69464FF08040FFF705FB08212B
:10185000C806FFF7F7FA0821C806FFF73BFB01218E
:101860008807FFF782FA012007B030BD08B50121D3
:101870004020FFF70DF93C20ADF8000004208DF862
:10188000030003208DF8020069460248FFF744F880
:10189000012008BD0018014010B586B004460121A2
:1018A00044F20400FFF7F4F84FF40070ADF81400B0
:1018B00018208DF8170003208DF8160005A913488D
:1018C000FFF72AF84FF48060ADF8140004208DF87B
:1018D000170005A90D48FFF71FF801940020ADF887
:1018E00010000C20ADF80E000020ADF80C00ADF893
:1018F0000A00ADF8080001A90548FFF769FB0121BE
:101900000348FFF74BFB012006B010BD0008014063
:101910000038014010B5044612E000BF80210B489A
:10192000FFF748FB0028F9D021780848FFF7BCFBF7
:1019300000BF40210548FFF73DFB0028F9D1641C9A
:1019400020780028E9D1012010BD000000380140B6
:1019500010B50648FFF750FC0448FFF734FD044972
:10196000087008460078FFF7F5FD10BD70000020F4
:10197000140000209419000800000020500000000E
:10198000B4100008E419000850000020A006000070
:10199000C410000800A24A0400000000000000007B
:1019A000010203040607080900000000000000000F
:1019B000000000001F85034133333B41E17A34408E
:1019C000D0070000D0070000D0070000FF00000093
:1019D00000010203040102030406070809020406C9
:0419E00008000000FB
:0400000508000131BD
:00000001FF
