Component: ARM Compiler 5.06 update 7 (build 960) Tool: armlink [4d3601]

==============================================================================

Section Cross References

    main.o(i.main) refers to stm32f10x_rcc.o(i.RCC_APB2PeriphClockCmd) for RCC_APB2PeriphClockCmd
    main.o(i.main) refers to misc.o(i.NVIC_PriorityGroupConfig) for NVIC_PriorityGroupConfig
    main.o(i.main) refers to delay.o(i.delay_init) for delay_init
    main.o(i.main) refers to config.o(i.usart1_init) for usart1_init
    main.o(i.main) refers to motor.o(i.motor_init) for motor_init
    main.o(i.main) refers to indicators.o(i.led_init) for led_init
    main.o(i.main) refers to tsl1401.o(i.camera_init) for camera_init
    main.o(i.main) refers to switches.o(i.switches_gpio_init) for switches_gpio_init
    main.o(i.main) refers to match.o(i.xunji) for xunji
    system_stm32f10x.o(i.SetSysClock) refers to system_stm32f10x.o(i.SetSysClockTo72) for SetSysClockTo72
    system_stm32f10x.o(i.SystemCoreClockUpdate) refers to system_stm32f10x.o(.data) for SystemCoreClock
    system_stm32f10x.o(i.SystemInit) refers to system_stm32f10x.o(i.SetSysClock) for SetSysClock
    match.o(i.xunji) refers to tsl1401.o(i.camera_capture) for camera_capture
    match.o(i.xunji) refers to tsl1401.o(i.frame_find_middle_point) for frame_find_middle_point
    match.o(i.xunji) refers to motor.o(i.motor_pid_calculation) for motor_pid_calculation
    match.o(i.xunji) refers to tsl1401.o(.bss) for pixels
    match.o(i.xunji) refers to match.o(.data) for middle
    delay.o(i.delay_init) refers to misc.o(i.SysTick_CLKSourceConfig) for SysTick_CLKSourceConfig
==============================================================================

Removing Unused input sections from the image.

    Removing system_stm32f10x.o(i.SystemCoreClockUpdate), (164 bytes).
    Removing sys.o(.emb_text), (6 bytes).
    Removing sys.o(i.INTX_DISABLE), (4 bytes).
    Removing sys.o(i.INTX_ENABLE), (4 bytes).
    Removing sys.o(i.WFI_SET), (4 bytes).
    Removing delay.o(i.delay_ms), (76 bytes).
    Removing delay.o(i.delay_us), (76 bytes).
    Removing i2c.o(i.oled_i2c_ack), (56 bytes).
    Removing i2c.o(i.oled_i2c_init), (60 bytes).
    Removing i2c.o(i.oled_i2c_nack), (56 bytes).
    Removing i2c.o(i.oled_i2c_read_byte), (88 bytes).
    Removing i2c.o(i.oled_i2c_send_byte), (96 bytes).
    Removing i2c.o(i.oled_i2c_start), (56 bytes).
    Removing i2c.o(i.oled_i2c_stop), (52 bytes).
    Removing i2c.o(i.oled_i2c_wait_ack), (76 bytes).
    Removing i2c.o(i.oled_sda_in), (28 bytes).
    Removing i2c.o(i.oled_sda_out), (28 bytes).
    Removing i2c.o(.data), (5 bytes).
==============================================================================

Image Symbol Table

    Local Symbols

    Symbol Name                              Value     Ov Type        Size  Object(Section)

    ../clib/microlib/init/entry.s            0x00000000   Number         0  entry8a.o ABSOLUTE
    ../clib/microlib/init/entry.s            0x00000000   Number         0  entry8b.o ABSOLUTE
    ../clib/microlib/init/entry.s            0x00000000   Number         0  entry10b.o ABSOLUTE
    ../clib/microlib/init/entry.s            0x00000000   Number         0  entry9a.o ABSOLUTE
    ../clib/microlib/init/entry.s            0x00000000   Number         0  entry9b.o ABSOLUTE
    ../clib/microlib/init/entry.s            0x00000000   Number         0  entry12b.o ABSOLUTE
    ../clib/microlib/init/entry.s            0x00000000   Number         0  entry10a.o ABSOLUTE
    ../clib/microlib/init/entry.s            0x00000000   Number         0  entry12a.o ABSOLUTE
    ../clib/microlib/init/entry.s            0x00000000   Number         0  entry11b.o ABSOLUTE
    ../clib/microlib/init/entry.s            0x00000000   Number         0  entry.o ABSOLUTE
    ../clib/microlib/init/entry.s            0x00000000   Number         0  entry11a.o ABSOLUTE
    ../clib/microlib/init/entry.s            0x00000000   Number         0  entry7b.o ABSOLUTE
    ../clib/microlib/init/entry.s            0x00000000   Number         0  entry7a.o ABSOLUTE
    ../clib/microlib/init/entry.s            0x00000000   Number         0  entry2.o ABSOLUTE
    ../clib/microlib/init/entry.s            0x00000000   Number         0  entry5.o ABSOLUTE
    ../clib/microlib/longlong.c              0x00000000   Number         0  llsshr.o ABSOLUTE
    ../clib/microlib/longlong.c              0x00000000   Number         0  llushr.o ABSOLUTE
    ../clib/microlib/longlong.c              0x00000000   Number         0  llshl.o ABSOLUTE
    ../clib/microlib/stubs.s                 0x00000000   Number         0  iusefp.o ABSOLUTE
    ../fplib/microlib/f2d.c                  0x00000000   Number         0  f2d.o ABSOLUTE
    ../fplib/microlib/fpadd.c                0x00000000   Number         0  dadd.o ABSOLUTE
    ../fplib/microlib/fpdiv.c                0x00000000   Number         0  ddiv.o ABSOLUTE
    ../fplib/microlib/fpepilogue.c           0x00000000   Number         0  fepilogue.o ABSOLUTE
    ../fplib/microlib/fpepilogue.c           0x00000000   Number         0  depilogue.o ABSOLUTE
    ../fplib/microlib/fpfix.c                0x00000000   Number         0  dfixi.o ABSOLUTE
    ../fplib/microlib/fpflt.c                0x00000000   Number         0  dflti.o ABSOLUTE
    ../fplib/microlib/fpflt.c                0x00000000   Number         0  fflti.o ABSOLUTE
    ../fplib/microlib/fpmul.c                0x00000000   Number         0  fmul.o ABSOLUTE
    ../fplib/microlib/fpmul.c                0x00000000   Number         0  dmul.o ABSOLUTE
    ..\Core\core_cm3.c                       0x00000000   Number         0  core_cm3.o ABSOLUTE
    ..\Core\src\misc.c                       0x00000000   Number         0  misc.o ABSOLUTE
    ..\Core\src\stm32f10x_adc.c              0x00000000   Number         0  stm32f10x_adc.o ABSOLUTE
    ..\Core\src\stm32f10x_bkp.c              0x00000000   Number         0  stm32f10x_bkp.o ABSOLUTE
    ..\Core\src\stm32f10x_can.c              0x00000000   Number         0  stm32f10x_can.o ABSOLUTE
    ..\Core\src\stm32f10x_cec.c              0x00000000   Number         0  stm32f10x_cec.o ABSOLUTE
    ..\Core\src\stm32f10x_crc.c              0x00000000   Number         0  stm32f10x_crc.o ABSOLUTE
    ..\Core\src\stm32f10x_dac.c              0x00000000   Number         0  stm32f10x_dac.o ABSOLUTE
    ..\Core\src\stm32f10x_dbgmcu.c           0x00000000   Number         0  stm32f10x_dbgmcu.o ABSOLUTE
    ..\Core\src\stm32f10x_dma.c              0x00000000   Number         0  stm32f10x_dma.o ABSOLUTE
    ..\Core\src\stm32f10x_exti.c             0x00000000   Number         0  stm32f10x_exti.o ABSOLUTE
    ..\Core\src\stm32f10x_flash.c            0x00000000   Number         0  stm32f10x_flash.o ABSOLUTE
    ..\Core\src\stm32f10x_fsmc.c             0x00000000   Number         0  stm32f10x_fsmc.o ABSOLUTE
    ..\Core\src\stm32f10x_gpio.c             0x00000000   Number         0  stm32f10x_gpio.o ABSOLUTE
    ..\Core\src\stm32f10x_i2c.c              0x00000000   Number         0  stm32f10x_i2c.o ABSOLUTE
    ..\Core\src\stm32f10x_iwdg.c             0x00000000   Number         0  stm32f10x_iwdg.o ABSOLUTE
    ..\Core\src\stm32f10x_pwr.c              0x00000000   Number         0  stm32f10x_pwr.o ABSOLUTE
    ..\Core\src\stm32f10x_rcc.c              0x00000000   Number         0  stm32f10x_rcc.o ABSOLUTE
    ..\Core\src\stm32f10x_rtc.c              0x00000000   Number         0  stm32f10x_rtc.o ABSOLUTE
    ..\Core\src\stm32f10x_sdio.c             0x00000000   Number         0  stm32f10x_sdio.o ABSOLUTE
    ..\Core\src\stm32f10x_spi.c              0x00000000   Number         0  stm32f10x_spi.o ABSOLUTE
    ..\Core\src\stm32f10x_tim.c              0x00000000   Number         0  stm32f10x_tim.o ABSOLUTE
    ..\Core\src\stm32f10x_usart.c            0x00000000   Number         0  stm32f10x_usart.o ABSOLUTE
    ..\Core\src\stm32f10x_wwdg.c             0x00000000   Number         0  stm32f10x_wwdg.o ABSOLUTE
    ..\Core\startup_stm32f10x_hd.s           0x00000000   Number         0  startup_stm32f10x_hd.o ABSOLUTE
    ..\Peripherals\encoders.c                0x00000000   Number         0  encoders.o ABSOLUTE
    ..\Peripherals\i2c.c                     0x00000000   Number         0  i2c.o ABSOLUTE
    ..\Peripherals\indicators.c              0x00000000   Number         0  indicators.o ABSOLUTE
    ..\Peripherals\motor.c                   0x00000000   Number         0  motor.o ABSOLUTE
    ..\Peripherals\sensors.c                 0x00000000   Number         0  sensors.o ABSOLUTE
    ..\Peripherals\ssd1306.c                 0x00000000   Number         0  ssd1306.o ABSOLUTE
    ..\Peripherals\switches.c                0x00000000   Number         0  switches.o ABSOLUTE
    ..\Peripherals\tsl1401.c                 0x00000000   Number         0  tsl1401.o ABSOLUTE
    ..\\Core\\core_cm3.c                     0x00000000   Number         0  core_cm3.o ABSOLUTE
    MATCH.c                                  0x00000000   Number         0  match.o ABSOLUTE
    config.c                                 0x00000000   Number         0  config.o ABSOLUTE
    dc.s                                     0x00000000   Number         0  dc.o ABSOLUTE
    delay\delay.c                            0x00000000   Number         0  delay.o ABSOLUTE
    handlers.s                               0x00000000   Number         0  handlers.o ABSOLUTE
    init.s                                   0x00000000   Number         0  init.o ABSOLUTE
    main.c                                   0x00000000   Number         0  main.o ABSOLUTE
    stm32f10x_it.c                           0x00000000   Number         0  stm32f10x_it.o ABSOLUTE
    sys\\sys.c                               0x00000000   Number         0  sys.o ABSOLUTE
    sys\sys.c                                0x00000000   Number         0  sys.o ABSOLUTE
    system_stm32f10x.c                       0x00000000   Number         0  system_stm32f10x.o ABSOLUTE
    RESET                                    0x08000000   Section      304  startup_stm32f10x_hd.o(RESET)
    .ARM.Collect$$$$00000000                 0x08000130   Section        0  entry.o(.ARM.Collect$$$$00000000)
    .ARM.Collect$$$$00000001                 0x08000130   Section        4  entry2.o(.ARM.Collect$$$$00000001)
    .ARM.Collect$$$$00000004                 0x08000134   Section        4  entry5.o(.ARM.Collect$$$$00000004)
    .ARM.Collect$$$$00000008                 0x08000138   Section        0  entry7b.o(.ARM.Collect$$$$00000008)
    .ARM.Collect$$$$0000000A                 0x08000138   Section        0  entry8b.o(.ARM.Collect$$$$0000000A)
    .ARM.Collect$$$$0000000B                 0x08000138   Section        8  entry9a.o(.ARM.Collect$$$$0000000B)
    .ARM.Collect$$$$0000000E                 0x08000140   Section        4  entry12b.o(.ARM.Collect$$$$0000000E)
    .ARM.Collect$$$$0000000F                 0x08000144   Section        0  entry10a.o(.ARM.Collect$$$$0000000F)
    .ARM.Collect$$$$00000011                 0x08000144   Section        0  entry11a.o(.ARM.Collect$$$$00000011)
    .ARM.Collect$$$$00002712                 0x08000144   Section        4  entry2.o(.ARM.Collect$$$$00002712)
    __lit__00000000                          0x08000144   Data           4  entry2.o(.ARM.Collect$$$$00002712)
    .text                                    0x08000148   Section       36  startup_stm32f10x_hd.o(.text)
    .text                                    0x0800016c   Section        0  fmul.o(.text)
    .text                                    0x080001d0   Section        0  dadd.o(.text)
    .text                                    0x0800031e   Section        0  dmul.o(.text)
    .text                                    0x08000402   Section        0  ddiv.o(.text)
    .text                                    0x080004e0   Section        0  fflti.o(.text)
    .text                                    0x080004f2   Section        0  dflti.o(.text)
    .text                                    0x08000514   Section        0  dfixi.o(.text)
    .text                                    0x08000552   Section        0  f2d.o(.text)
    .text                                    0x08000578   Section        0  llshl.o(.text)
    .text                                    0x08000596   Section        0  llushr.o(.text)
    .text                                    0x080005b6   Section        0  llsshr.o(.text)
    .text                                    0x080005da   Section        0  iusefp.o(.text)
    .text                                    0x080005da   Section        0  fepilogue.o(.text)
    .text                                    0x08000648   Section        0  depilogue.o(.text)
    .text                                    0x08000704   Section       36  init.o(.text)
    i.ADC_Cmd                                0x08000728   Section        0  stm32f10x_adc.o(i.ADC_Cmd)
    i.ADC_DeInit                             0x08000740   Section        0  stm32f10x_adc.o(i.ADC_DeInit)
    i.ADC_GetCalibrationStatus               0x0800079c   Section        0  stm32f10x_adc.o(i.ADC_GetCalibrationStatus)
    i.ADC_GetConversionValue                 0x080007b0   Section        0  stm32f10x_adc.o(i.ADC_GetConversionValue)
    i.ADC_GetFlagStatus                      0x080007b8   Section        0  stm32f10x_adc.o(i.ADC_GetFlagStatus)
    i.ADC_GetResetCalibrationStatus          0x080007ca   Section        0  stm32f10x_adc.o(i.ADC_GetResetCalibrationStatus)
    i.ADC_Init                               0x080007e0   Section        0  stm32f10x_adc.o(i.ADC_Init)
    i.ADC_RegularChannelConfig               0x08000830   Section        0  stm32f10x_adc.o(i.ADC_RegularChannelConfig)
    i.ADC_ResetCalibration                   0x080008e8   Section        0  stm32f10x_adc.o(i.ADC_ResetCalibration)
    i.ADC_SoftwareStartConvCmd               0x080008f2   Section        0  stm32f10x_adc.o(i.ADC_SoftwareStartConvCmd)
    i.ADC_StartCalibration                   0x08000908   Section        0  stm32f10x_adc.o(i.ADC_StartCalibration)
    i.BusFault_Handler                       0x08000912   Section        0  stm32f10x_it.o(i.BusFault_Handler)
    i.DebugMon_Handler                       0x08000916   Section        0  stm32f10x_it.o(i.DebugMon_Handler)
    i.GPIO_Init                              0x08000918   Section        0  stm32f10x_gpio.o(i.GPIO_Init)
    i.GPIO_ResetBits                         0x08000a2e   Section        0  stm32f10x_gpio.o(i.GPIO_ResetBits)
    i.GPIO_SetBits                           0x08000a32   Section        0  stm32f10x_gpio.o(i.GPIO_SetBits)
    i.HardFault_Handler                      0x08000a36   Section        0  stm32f10x_it.o(i.HardFault_Handler)
    i.MemManage_Handler                      0x08000a3a   Section        0  stm32f10x_it.o(i.MemManage_Handler)
    i.NMI_Handler                            0x08000a3e   Section        0  stm32f10x_it.o(i.NMI_Handler)
    i.NVIC_PriorityGroupConfig               0x08000a40   Section        0  misc.o(i.NVIC_PriorityGroupConfig)
    i.PendSV_Handler                         0x08000a54   Section        0  stm32f10x_it.o(i.PendSV_Handler)
    i.RCC_ADCCLKConfig                       0x08000a58   Section        0  stm32f10x_rcc.o(i.RCC_ADCCLKConfig)
    i.RCC_APB1PeriphClockCmd                 0x08000a70   Section        0  stm32f10x_rcc.o(i.RCC_APB1PeriphClockCmd)
    i.RCC_APB2PeriphClockCmd                 0x08000a90   Section        0  stm32f10x_rcc.o(i.RCC_APB2PeriphClockCmd)
    i.RCC_APB2PeriphResetCmd                 0x08000ab0   Section        0  stm32f10x_rcc.o(i.RCC_APB2PeriphResetCmd)
    i.RCC_GetClocksFreq                      0x08000ad0   Section        0  stm32f10x_rcc.o(i.RCC_GetClocksFreq)
    i.SVC_Handler                            0x08000ba4   Section        0  stm32f10x_it.o(i.SVC_Handler)
    i.SetSysClock                            0x08000ba6   Section        0  system_stm32f10x.o(i.SetSysClock)
    SetSysClock                              0x08000ba7   Thumb Code     8  system_stm32f10x.o(i.SetSysClock)
    i.SetSysClockTo72                        0x08000bb0   Section        0  system_stm32f10x.o(i.SetSysClockTo72)
    SetSysClockTo72                          0x08000bb1   Thumb Code   214  system_stm32f10x.o(i.SetSysClockTo72)
    i.SysTick_CLKSourceConfig                0x08000c90   Section        0  misc.o(i.SysTick_CLKSourceConfig)
    i.SysTick_Handler                        0x08000cb8   Section        0  stm32f10x_it.o(i.SysTick_Handler)
    i.SystemInit                             0x08000cbc   Section        0  system_stm32f10x.o(i.SystemInit)
    i.TIM5_IRQHandler                        0x08000d1c   Section        0  encoders.o(i.TIM5_IRQHandler)
    i.TIM_ClearITPendingBit                  0x08000d64   Section        0  stm32f10x_tim.o(i.TIM_ClearITPendingBit)
    i.TIM_Cmd                                0x08000d6a   Section        0  stm32f10x_tim.o(i.TIM_Cmd)
    i.TIM_GetITStatus                        0x08000d82   Section        0  stm32f10x_tim.o(i.TIM_GetITStatus)
    i.TIM_OC3Init                            0x08000da4   Section        0  stm32f10x_tim.o(i.TIM_OC3Init)
    i.TIM_OC3PreloadConfig                   0x08000e44   Section        0  stm32f10x_tim.o(i.TIM_OC3PreloadConfig)
    i.TIM_OC4Init                            0x08000e58   Section        0  stm32f10x_tim.o(i.TIM_OC4Init)
    i.TIM_OC4PreloadConfig                   0x08000ed4   Section        0  stm32f10x_tim.o(i.TIM_OC4PreloadConfig)
    i.TIM_SetCompare3                        0x08000eee   Section        0  stm32f10x_tim.o(i.TIM_SetCompare3)
    i.TIM_SetCompare4                        0x08000ef2   Section        0  stm32f10x_tim.o(i.TIM_SetCompare4)
    i.TIM_TimeBaseInit                       0x08000ef8   Section        0  stm32f10x_tim.o(i.TIM_TimeBaseInit)
    i.USART_Cmd                              0x08000f9c   Section        0  stm32f10x_usart.o(i.USART_Cmd)
    i.USART_GetFlagStatus                    0x08000fb4   Section        0  stm32f10x_usart.o(i.USART_GetFlagStatus)
    i.USART_Init                             0x08000fd0   Section        0  stm32f10x_usart.o(i.USART_Init)
    i.USART_SendData                         0x080010a8   Section        0  stm32f10x_usart.o(i.USART_SendData)
    i.UsageFault_Handler                     0x080010b0   Section        0  stm32f10x_it.o(i.UsageFault_Handler)
    i.__scatterload_copy                     0x080010b4   Section       14  handlers.o(i.__scatterload_copy)
    i.__scatterload_null                     0x080010c2   Section        2  handlers.o(i.__scatterload_null)
    i.__scatterload_zeroinit                 0x080010c4   Section       14  handlers.o(i.__scatterload_zeroinit)
    i.camera_adc_get_middle                  0x080010d2   Section        0  tsl1401.o(i.camera_adc_get_middle)
    i.camera_adc_get_value                   0x08001134   Section        0  tsl1401.o(i.camera_adc_get_value)
    i.camera_adc_init                        0x08001168   Section        0  tsl1401.o(i.camera_adc_init)
    i.camera_capture                         0x080011f8   Section        0  tsl1401.o(i.camera_capture)
    i.camera_gpio_init                       0x080012b0   Section        0  tsl1401.o(i.camera_gpio_init)
    i.camera_init                            0x080012dc   Section        0  tsl1401.o(i.camera_init)
    i.delay_init                             0x080012ec   Section        0  delay.o(i.delay_init)
    i.delay_ns                               0x08001330   Section        0  delay.o(i.delay_ns)
    i.frame_average_filter_3kernels          0x0800135a   Section        0  tsl1401.o(i.frame_average_filter_3kernels)
    i.frame_binarized_1                      0x080013a8   Section        0  tsl1401.o(i.frame_binarized_1)
    i.frame_find_middle_point                0x080013c6   Section        0  tsl1401.o(i.frame_find_middle_point)
    i.frame_upload                           0x08001404   Section        0  tsl1401.o(i.frame_upload)
    i.led_all_toggle_high                    0x08001420   Section        0  indicators.o(i.led_all_toggle_high)
    i.led_gpio_init                          0x08001440   Section        0  indicators.o(i.led_gpio_init)
    i.led_init                               0x08001480   Section        0  indicators.o(i.led_init)
    i.main                                   0x0800148e   Section        0  main.o(i.main)
    i.motor_go_ahead                         0x080014c4   Section        0  motor.o(i.motor_go_ahead)
    i.motor_gpio_init                        0x080014e0   Section        0  motor.o(i.motor_gpio_init)
    i.motor_init                             0x08001524   Section        0  motor.o(i.motor_init)
    i.motor_pid_calculation                  0x08001554   Section        0  motor.o(i.motor_pid_calculation)
    i.motor_set_pwm                          0x080017c0   Section        0  motor.o(i.motor_set_pwm)
    i.motor_tim_init                         0x080017de   Section        0  motor.o(i.motor_tim_init)
    i.switches_gpio_init                     0x0800186c   Section        0  switches.o(i.switches_gpio_init)
    i.usart1_init                            0x08001898   Section        0  config.o(i.usart1_init)
    i.usart1_printf                          0x08001914   Section        0  config.o(i.usart1_printf)
    i.xunji                                  0x08001950   Section        0  match.o(i.xunji)
    .data                                    0x20000000   Section       20  system_stm32f10x.o(.data)
    .data                                    0x20000014   Section        1  match.o(.data)
    .data                                    0x20000016   Section        4  delay.o(.data)
    fac_us                                   0x20000016   Data           1  delay.o(.data)
    fac_ms                                   0x20000018   Data           2  delay.o(.data)
    .data                                    0x2000001a   Section        4  encoders.o(.data)
    .data                                    0x20000020   Section       24  motor.o(.data)
    .data                                    0x20000038   Section        1  tsl1401.o(.data)
    .data                                    0x20000039   Section       20  stm32f10x_rcc.o(.data)
    APBAHBPrescTable                         0x20000039   Data          16  stm32f10x_rcc.o(.data)
    ADCPrescTable                            0x20000049   Data           4  stm32f10x_rcc.o(.data)
    .bss                                     0x20000050   Section       32  motor.o(.bss)
    .bss                                     0x20000070   Section      640  tsl1401.o(.bss)
    STACK                                    0x200002f0   Section     1024  startup_stm32f10x_hd.o(STACK)

    Global Symbols

    Symbol Name                              Value     Ov Type        Size  Object(Section)

    BuildAttributes$$THM_ISAv4$P$D$K$B$S$PE$A:L22UL41UL21$X:L11$S22US41US21$IEEE1$IW$USESV6$~STKCKD$USESV7$~SHL$OTIME$ROPI$EBA8$MICROLIB$REQ8$PRES8$EABIv2 0x00000000   Number         0  anon$$obj.o ABSOLUTE
    __ARM_use_no_argv                        0x00000000   Number         0  main.o ABSOLUTE
    __arm_fini_                               - Undefined Weak Reference
    __cpp_initialize__aeabi_                  - Undefined Weak Reference
    __cxa_finalize                            - Undefined Weak Reference
    __decompress                              - Undefined Weak Reference
    _clock_init                               - Undefined Weak Reference
    _microlib_exit                            - Undefined Weak Reference
    __Vectors_Size                           0x00000130   Number         0  startup_stm32f10x_hd.o ABSOLUTE
    __Vectors                                0x08000000   Data           4  startup_stm32f10x_hd.o(RESET)
    __Vectors_End                            0x08000130   Data           0  startup_stm32f10x_hd.o(RESET)
    __main                                   0x08000131   Thumb Code     0  entry.o(.ARM.Collect$$$$00000000)
    _main_stk                                0x08000131   Thumb Code     0  entry2.o(.ARM.Collect$$$$00000001)
    _main_scatterload                        0x08000135   Thumb Code     0  entry5.o(.ARM.Collect$$$$00000004)
    __main_after_scatterload                 0x08000139   Thumb Code     0  entry5.o(.ARM.Collect$$$$00000004)
    _main_clock                              0x08000139   Thumb Code     0  entry7b.o(.ARM.Collect$$$$00000008)
    _main_cpp_init                           0x08000139   Thumb Code     0  entry8b.o(.ARM.Collect$$$$0000000A)
    _main_init                               0x08000139   Thumb Code     0  entry9a.o(.ARM.Collect$$$$0000000B)
    __rt_lib_shutdown_fini                   0x08000141   Thumb Code     0  entry12b.o(.ARM.Collect$$$$0000000E)
    __rt_final_cpp                           0x08000145   Thumb Code     0  entry10a.o(.ARM.Collect$$$$0000000F)
    __rt_final_exit                          0x08000145   Thumb Code     0  entry11a.o(.ARM.Collect$$$$00000011)
    Reset_Handler                            0x08000149   Thumb Code     8  startup_stm32f10x_hd.o(.text)
    ADC1_2_IRQHandler                        0x08000163   Thumb Code     0  startup_stm32f10x_hd.o(.text)
    ADC3_IRQHandler                          0x08000163   Thumb Code     0  startup_stm32f10x_hd.o(.text)
    CAN1_RX1_IRQHandler                      0x08000163   Thumb Code     0  startup_stm32f10x_hd.o(.text)
    CAN1_SCE_IRQHandler                      0x08000163   Thumb Code     0  startup_stm32f10x_hd.o(.text)
    DMA1_Channel1_IRQHandler                 0x08000163   Thumb Code     0  startup_stm32f10x_hd.o(.text)
    DMA1_Channel2_IRQHandler                 0x08000163   Thumb Code     0  startup_stm32f10x_hd.o(.text)
    DMA1_Channel3_IRQHandler                 0x08000163   Thumb Code     0  startup_stm32f10x_hd.o(.text)
    DMA1_Channel4_IRQHandler                 0x08000163   Thumb Code     0  startup_stm32f10x_hd.o(.text)
    DMA1_Channel5_IRQHandler                 0x08000163   Thumb Code     0  startup_stm32f10x_hd.o(.text)
    DMA1_Channel6_IRQHandler                 0x08000163   Thumb Code     0  startup_stm32f10x_hd.o(.text)
    DMA1_Channel7_IRQHandler                 0x08000163   Thumb Code     0  startup_stm32f10x_hd.o(.text)
    DMA2_Channel1_IRQHandler                 0x08000163   Thumb Code     0  startup_stm32f10x_hd.o(.text)
    DMA2_Channel2_IRQHandler                 0x08000163   Thumb Code     0  startup_stm32f10x_hd.o(.text)
    DMA2_Channel3_IRQHandler                 0x08000163   Thumb Code     0  startup_stm32f10x_hd.o(.text)
    DMA2_Channel4_5_IRQHandler               0x08000163   Thumb Code     0  startup_stm32f10x_hd.o(.text)
    EXTI0_IRQHandler                         0x08000163   Thumb Code     0  startup_stm32f10x_hd.o(.text)
    EXTI15_10_IRQHandler                     0x08000163   Thumb Code     0  startup_stm32f10x_hd.o(.text)
    EXTI1_IRQHandler                         0x08000163   Thumb Code     0  startup_stm32f10x_hd.o(.text)
    EXTI2_IRQHandler                         0x08000163   Thumb Code     0  startup_stm32f10x_hd.o(.text)
    EXTI3_IRQHandler                         0x08000163   Thumb Code     0  startup_stm32f10x_hd.o(.text)
    EXTI4_IRQHandler                         0x08000163   Thumb Code     0  startup_stm32f10x_hd.o(.text)
    EXTI9_5_IRQHandler                       0x08000163   Thumb Code     0  startup_stm32f10x_hd.o(.text)
    FLASH_IRQHandler                         0x08000163   Thumb Code     0  startup_stm32f10x_hd.o(.text)
    FSMC_IRQHandler                          0x08000163   Thumb Code     0  startup_stm32f10x_hd.o(.text)
    I2C1_ER_IRQHandler                       0x08000163   Thumb Code     0  startup_stm32f10x_hd.o(.text)
    I2C1_EV_IRQHandler                       0x08000163   Thumb Code     0  startup_stm32f10x_hd.o(.text)
    I2C2_ER_IRQHandler                       0x08000163   Thumb Code     0  startup_stm32f10x_hd.o(.text)
    I2C2_EV_IRQHandler                       0x08000163   Thumb Code     0  startup_stm32f10x_hd.o(.text)
    PVD_IRQHandler                           0x08000163   Thumb Code     0  startup_stm32f10x_hd.o(.text)
    RCC_IRQHandler                           0x08000163   Thumb Code     0  startup_stm32f10x_hd.o(.text)
    RTCAlarm_IRQHandler                      0x08000163   Thumb Code     0  startup_stm32f10x_hd.o(.text)
    RTC_IRQHandler                           0x08000163   Thumb Code     0  startup_stm32f10x_hd.o(.text)
    SDIO_IRQHandler                          0x08000163   Thumb Code     0  startup_stm32f10x_hd.o(.text)
    SPI1_IRQHandler                          0x08000163   Thumb Code     0  startup_stm32f10x_hd.o(.text)
    SPI2_IRQHandler                          0x08000163   Thumb Code     0  startup_stm32f10x_hd.o(.text)
    SPI3_IRQHandler                          0x08000163   Thumb Code     0  startup_stm32f10x_hd.o(.text)
    TAMPER_IRQHandler                        0x08000163   Thumb Code     0  startup_stm32f10x_hd.o(.text)
    TIM1_BRK_IRQHandler                      0x08000163   Thumb Code     0  startup_stm32f10x_hd.o(.text)
    TIM1_CC_IRQHandler                       0x08000163   Thumb Code     0  startup_stm32f10x_hd.o(.text)
    TIM1_TRG_COM_IRQHandler                  0x08000163   Thumb Code     0  startup_stm32f10x_hd.o(.text)
    TIM1_UP_IRQHandler                       0x08000163   Thumb Code     0  startup_stm32f10x_hd.o(.text)
    TIM2_IRQHandler                          0x08000163   Thumb Code     0  startup_stm32f10x_hd.o(.text)
    TIM3_IRQHandler                          0x08000163   Thumb Code     0  startup_stm32f10x_hd.o(.text)
    TIM4_IRQHandler                          0x08000163   Thumb Code     0  startup_stm32f10x_hd.o(.text)
    TIM6_IRQHandler                          0x08000163   Thumb Code     0  startup_stm32f10x_hd.o(.text)
    TIM7_IRQHandler                          0x08000163   Thumb Code     0  startup_stm32f10x_hd.o(.text)
    TIM8_BRK_IRQHandler                      0x08000163   Thumb Code     0  startup_stm32f10x_hd.o(.text)
    TIM8_CC_IRQHandler                       0x08000163   Thumb Code     0  startup_stm32f10x_hd.o(.text)
    TIM8_TRG_COM_IRQHandler                  0x08000163   Thumb Code     0  startup_stm32f10x_hd.o(.text)
    TIM8_UP_IRQHandler                       0x08000163   Thumb Code     0  startup_stm32f10x_hd.o(.text)
    UART4_IRQHandler                         0x08000163   Thumb Code     0  startup_stm32f10x_hd.o(.text)
    UART5_IRQHandler                         0x08000163   Thumb Code     0  startup_stm32f10x_hd.o(.text)
    USART1_IRQHandler                        0x08000163   Thumb Code     0  startup_stm32f10x_hd.o(.text)
    USART2_IRQHandler                        0x08000163   Thumb Code     0  startup_stm32f10x_hd.o(.text)
    USART3_IRQHandler                        0x08000163   Thumb Code     0  startup_stm32f10x_hd.o(.text)
    USBWakeUp_IRQHandler                     0x08000163   Thumb Code     0  startup_stm32f10x_hd.o(.text)
    USB_HP_CAN1_TX_IRQHandler                0x08000163   Thumb Code     0  startup_stm32f10x_hd.o(.text)
    USB_LP_CAN1_RX0_IRQHandler               0x08000163   Thumb Code     0  startup_stm32f10x_hd.o(.text)
    WWDG_IRQHandler                          0x08000163   Thumb Code     0  startup_stm32f10x_hd.o(.text)
    __aeabi_fmul                             0x0800016d   Thumb Code   100  fmul.o(.text)
    __aeabi_dadd                             0x080001d1   Thumb Code   322  dadd.o(.text)
    __aeabi_dsub                             0x08000313   Thumb Code     6  dadd.o(.text)
    __aeabi_drsub                            0x08000319   Thumb Code     6  dadd.o(.text)
    __aeabi_dmul                             0x0800031f   Thumb Code   228  dmul.o(.text)
    __aeabi_ddiv                             0x08000403   Thumb Code   222  ddiv.o(.text)
    __aeabi_i2f                              0x080004e1   Thumb Code    18  fflti.o(.text)
    __aeabi_i2d                              0x080004f3   Thumb Code    34  dflti.o(.text)
    __aeabi_d2iz                             0x08000515   Thumb Code    62  dfixi.o(.text)
    __aeabi_f2d                              0x08000553   Thumb Code    38  f2d.o(.text)
    __aeabi_llsl                             0x08000579   Thumb Code    30  llshl.o(.text)
    _ll_shift_l                              0x08000579   Thumb Code     0  llshl.o(.text)
    __aeabi_llsr                             0x08000597   Thumb Code    32  llushr.o(.text)
    _ll_ushift_r                             0x08000597   Thumb Code     0  llushr.o(.text)
    __aeabi_lasr                             0x080005b7   Thumb Code    36  llsshr.o(.text)
    _ll_sshift_r                             0x080005b7   Thumb Code     0  llsshr.o(.text)
    __I$use$fp                               0x080005db   Thumb Code     0  iusefp.o(.text)
    _float_round                             0x080005db   Thumb Code    18  fepilogue.o(.text)
    _float_epilogue                          0x080005ed   Thumb Code    92  fepilogue.o(.text)
    _double_round                            0x08000649   Thumb Code    30  depilogue.o(.text)
    _double_epilogue                         0x08000667   Thumb Code   156  depilogue.o(.text)
    __scatterload                            0x08000705   Thumb Code    28  init.o(.text)
    __scatterload_rt2                        0x08000705   Thumb Code     0  init.o(.text)
    ADC_Cmd                                  0x08000729   Thumb Code    22  stm32f10x_adc.o(i.ADC_Cmd)
    ADC_DeInit                               0x08000741   Thumb Code    78  stm32f10x_adc.o(i.ADC_DeInit)
    ADC_GetCalibrationStatus                 0x0800079d   Thumb Code    20  stm32f10x_adc.o(i.ADC_GetCalibrationStatus)
    ADC_GetConversionValue                   0x080007b1   Thumb Code     8  stm32f10x_adc.o(i.ADC_GetConversionValue)
    ADC_GetFlagStatus                        0x080007b9   Thumb Code    18  stm32f10x_adc.o(i.ADC_GetFlagStatus)
    ADC_GetResetCalibrationStatus            0x080007cb   Thumb Code    20  stm32f10x_adc.o(i.ADC_GetResetCalibrationStatus)
    ADC_Init                                 0x080007e1   Thumb Code    70  stm32f10x_adc.o(i.ADC_Init)
    ADC_RegularChannelConfig                 0x08000831   Thumb Code   184  stm32f10x_adc.o(i.ADC_RegularChannelConfig)
    ADC_ResetCalibration                     0x080008e9   Thumb Code    10  stm32f10x_adc.o(i.ADC_ResetCalibration)
    ADC_SoftwareStartConvCmd                 0x080008f3   Thumb Code    22  stm32f10x_adc.o(i.ADC_SoftwareStartConvCmd)
    ADC_StartCalibration                     0x08000909   Thumb Code    10  stm32f10x_adc.o(i.ADC_StartCalibration)
    BusFault_Handler                         0x08000913   Thumb Code     4  stm32f10x_it.o(i.BusFault_Handler)
    DebugMon_Handler                         0x08000917   Thumb Code     2  stm32f10x_it.o(i.DebugMon_Handler)
    GPIO_Init                                0x08000919   Thumb Code   278  stm32f10x_gpio.o(i.GPIO_Init)
    GPIO_ResetBits                           0x08000a2f   Thumb Code     4  stm32f10x_gpio.o(i.GPIO_ResetBits)
    GPIO_SetBits                             0x08000a33   Thumb Code     4  stm32f10x_gpio.o(i.GPIO_SetBits)
    HardFault_Handler                        0x08000a37   Thumb Code     4  stm32f10x_it.o(i.HardFault_Handler)
    MemManage_Handler                        0x08000a3b   Thumb Code     4  stm32f10x_it.o(i.MemManage_Handler)
    NMI_Handler                              0x08000a3f   Thumb Code     2  stm32f10x_it.o(i.NMI_Handler)
    NVIC_PriorityGroupConfig                 0x08000a41   Thumb Code    10  misc.o(i.NVIC_PriorityGroupConfig)
    PendSV_Handler                           0x08000a55   Thumb Code     2  stm32f10x_it.o(i.PendSV_Handler)
    RCC_ADCCLKConfig                         0x08000a59   Thumb Code    18  stm32f10x_rcc.o(i.RCC_ADCCLKConfig)
    RCC_APB1PeriphClockCmd                   0x08000a71   Thumb Code    26  stm32f10x_rcc.o(i.RCC_APB1PeriphClockCmd)
    RCC_APB2PeriphClockCmd                   0x08000a91   Thumb Code    26  stm32f10x_rcc.o(i.RCC_APB2PeriphClockCmd)
    RCC_APB2PeriphResetCmd                   0x08000ab1   Thumb Code    26  stm32f10x_rcc.o(i.RCC_APB2PeriphResetCmd)
    RCC_GetClocksFreq                        0x08000ad1   Thumb Code   192  stm32f10x_rcc.o(i.RCC_GetClocksFreq)
    SVC_Handler                              0x08000ba5   Thumb Code     2  stm32f10x_it.o(i.SVC_Handler)
    SysTick_CLKSourceConfig                  0x08000c91   Thumb Code    40  misc.o(i.SysTick_CLKSourceConfig)
    SysTick_Handler                          0x08000cb9   Thumb Code     2  stm32f10x_it.o(i.SysTick_Handler)
    SystemInit                               0x08000cbd   Thumb Code    78  system_stm32f10x.o(i.SystemInit)
    TIM5_IRQHandler                          0x08000d1d   Thumb Code    54  encoders.o(i.TIM5_IRQHandler)
    TIM_ClearITPendingBit                    0x08000d65   Thumb Code     6  stm32f10x_tim.o(i.TIM_ClearITPendingBit)
    TIM_Cmd                                  0x08000d6b   Thumb Code    24  stm32f10x_tim.o(i.TIM_Cmd)
    TIM_GetITStatus                          0x08000d83   Thumb Code    34  stm32f10x_tim.o(i.TIM_GetITStatus)
    TIM_OC3Init                              0x08000da5   Thumb Code   150  stm32f10x_tim.o(i.TIM_OC3Init)
    TIM_OC3PreloadConfig                     0x08000e45   Thumb Code    18  stm32f10x_tim.o(i.TIM_OC3PreloadConfig)
    TIM_OC4Init                              0x08000e59   Thumb Code   114  stm32f10x_tim.o(i.TIM_OC4Init)
    TIM_OC4PreloadConfig                     0x08000ed5   Thumb Code    26  stm32f10x_tim.o(i.TIM_OC4PreloadConfig)
    TIM_SetCompare3                          0x08000eef   Thumb Code     4  stm32f10x_tim.o(i.TIM_SetCompare3)
    TIM_SetCompare4                          0x08000ef3   Thumb Code     6  stm32f10x_tim.o(i.TIM_SetCompare4)
    TIM_TimeBaseInit                         0x08000ef9   Thumb Code   122  stm32f10x_tim.o(i.TIM_TimeBaseInit)
    USART_Cmd                                0x08000f9d   Thumb Code    24  stm32f10x_usart.o(i.USART_Cmd)
    USART_GetFlagStatus                      0x08000fb5   Thumb Code    26  stm32f10x_usart.o(i.USART_GetFlagStatus)
    USART_Init                               0x08000fd1   Thumb Code   210  stm32f10x_usart.o(i.USART_Init)
    USART_SendData                           0x080010a9   Thumb Code     8  stm32f10x_usart.o(i.USART_SendData)
    UsageFault_Handler                       0x080010b1   Thumb Code     4  stm32f10x_it.o(i.UsageFault_Handler)
    __scatterload_copy                       0x080010b5   Thumb Code    14  handlers.o(i.__scatterload_copy)
    __scatterload_null                       0x080010c3   Thumb Code     2  handlers.o(i.__scatterload_null)
    __scatterload_zeroinit                   0x080010c5   Thumb Code    14  handlers.o(i.__scatterload_zeroinit)
    camera_adc_get_middle                    0x080010d3   Thumb Code    96  tsl1401.o(i.camera_adc_get_middle)
    camera_adc_get_value                     0x08001135   Thumb Code    46  tsl1401.o(i.camera_adc_get_value)
    camera_adc_init                          0x08001169   Thumb Code   134  tsl1401.o(i.camera_adc_init)
    camera_capture                           0x080011f9   Thumb Code   170  tsl1401.o(i.camera_capture)
    camera_gpio_init                         0x080012b1   Thumb Code    40  tsl1401.o(i.camera_gpio_init)
    camera_init                              0x080012dd   Thumb Code    14  tsl1401.o(i.camera_init)
    delay_init                               0x080012ed   Thumb Code    50  delay.o(i.delay_init)
    delay_ns                                 0x08001331   Thumb Code    42  delay.o(i.delay_ns)
    frame_average_filter_3kernels            0x0800135b   Thumb Code    78  tsl1401.o(i.frame_average_filter_3kernels)
    frame_binarized_1                        0x080013a9   Thumb Code    30  tsl1401.o(i.frame_binarized_1)
    frame_find_middle_point                  0x080013c7   Thumb Code    62  tsl1401.o(i.frame_find_middle_point)
    frame_upload                             0x08001405   Thumb Code    18  tsl1401.o(i.frame_upload)
    led_all_toggle_high                      0x08001421   Thumb Code    24  indicators.o(i.led_all_toggle_high)
    led_gpio_init                            0x08001441   Thumb Code    56  indicators.o(i.led_gpio_init)
    led_init                                 0x08001481   Thumb Code    14  indicators.o(i.led_init)
    main                                     0x0800148f   Thumb Code    52  main.o(i.main)
    motor_go_ahead                           0x080014c5   Thumb Code    24  motor.o(i.motor_go_ahead)
    motor_gpio_init                          0x080014e1   Thumb Code    62  motor.o(i.motor_gpio_init)
    motor_init                               0x08001525   Thumb Code    44  motor.o(i.motor_init)
    motor_pid_calculation                    0x08001555   Thumb Code   594  motor.o(i.motor_pid_calculation)
    motor_set_pwm                            0x080017c1   Thumb Code    30  motor.o(i.motor_set_pwm)
    motor_tim_init                           0x080017df   Thumb Code   142  motor.o(i.motor_tim_init)
    switches_gpio_init                       0x0800186d   Thumb Code    40  switches.o(i.switches_gpio_init)
    usart1_init                              0x08001899   Thumb Code   116  config.o(i.usart1_init)
    usart1_printf                            0x08001915   Thumb Code    54  config.o(i.usart1_printf)
    xunji                                    0x08001951   Thumb Code    28  match.o(i.xunji)
    Region$$Table$$Base                      0x08001974   Number         0  anon$$obj.o(Region$$Table)
    Region$$Table$$Limit                     0x08001994   Number         0  anon$$obj.o(Region$$Table)
    SystemCoreClock                          0x20000000   Data           4  system_stm32f10x.o(.data)
    AHBPrescTable                            0x20000004   Data          16  system_stm32f10x.o(.data)
    middle                                   0x20000014   Data           1  match.o(.data)
    encoder                                  0x2000001a   Data           4  encoders.o(.data)
    pid                                      0x20000020   Data          12  motor.o(.data)
    pwm                                      0x2000002c   Data           8  motor.o(.data)
    pwm_base                                 0x20000034   Data           4  motor.o(.data)
    finish                                   0x20000038   Data           1  tsl1401.o(.data)
    error                                    0x20000050   Data          32  motor.o(.bss)
    pixels                                   0x20000070   Data         128  tsl1401.o(.bss)
    pixels1                                  0x200000f0   Data         512  tsl1401.o(.bss)
    __initial_sp                             0x200006f0   Data           0  startup_stm32f10x_hd.o(STACK)



==============================================================================

Memory Map of the image

  Image Entry point : 0x08000131

  Load Region LR_IROM1 (Base: 0x08000000, Size: 0x000019e4, Max: 0x00040000, ABSOLUTE)

    Execution Region ER_IROM1 (Exec base: 0x08000000, Load base: 0x08000000, Size: 0x00001994, Max: 0x00040000, ABSOLUTE)

    Exec Addr    Load Addr    Size         Type   Attr      Idx    E Section Name        Object

    0x08000000   0x08000000   0x00000130   Data   RO         4122    RESET               startup_stm32f10x_hd.o
    0x08000130   0x08000130   0x00000000   Code   RO         4127  * .ARM.Collect$$$$00000000  mc_w.l(entry.o)
    0x08000130   0x08000130   0x00000004   Code   RO         4146    .ARM.Collect$$$$00000001  mc_w.l(entry2.o)
    0x08000134   0x08000134   0x00000004   Code   RO         4149    .ARM.Collect$$$$00000004  mc_w.l(entry5.o)
    0x08000138   0x08000138   0x00000000   Code   RO         4151    .ARM.Collect$$$$00000008  mc_w.l(entry7b.o)
    0x08000138   0x08000138   0x00000000   Code   RO         4153    .ARM.Collect$$$$0000000A  mc_w.l(entry8b.o)
    0x08000138   0x08000138   0x00000008   Code   RO         4154    .ARM.Collect$$$$0000000B  mc_w.l(entry9a.o)
    0x08000140   0x08000140   0x00000004   Code   RO         4161    .ARM.Collect$$$$0000000E  mc_w.l(entry12b.o)
    0x08000144   0x08000144   0x00000000   Code   RO         4156    .ARM.Collect$$$$0000000F  mc_w.l(entry10a.o)
    0x08000144   0x08000144   0x00000000   Code   RO         4158    .ARM.Collect$$$$00000011  mc_w.l(entry11a.o)
    0x08000144   0x08000144   0x00000004   Code   RO         4147    .ARM.Collect$$$$00002712  mc_w.l(entry2.o)
    0x08000148   0x08000148   0x00000024   Code   RO         4123    .text               startup_stm32f10x_hd.o
    0x0800016c   0x0800016c   0x00000064   Code   RO         4130    .text               mf_w.l(fmul.o)
    0x080001d0   0x080001d0   0x0000014e   Code   RO         4132    .text               mf_w.l(dadd.o)
    0x0800031e   0x0800031e   0x000000e4   Code   RO         4134    .text               mf_w.l(dmul.o)
    0x08000402   0x08000402   0x000000de   Code   RO         4136    .text               mf_w.l(ddiv.o)
    0x080004e0   0x080004e0   0x00000012   Code   RO         4138    .text               mf_w.l(fflti.o)
    0x080004f2   0x080004f2   0x00000022   Code   RO         4140    .text               mf_w.l(dflti.o)
    0x08000514   0x08000514   0x0000003e   Code   RO         4142    .text               mf_w.l(dfixi.o)
    0x08000552   0x08000552   0x00000026   Code   RO         4144    .text               mf_w.l(f2d.o)
    0x08000578   0x08000578   0x0000001e   Code   RO         4162    .text               mc_w.l(llshl.o)
    0x08000596   0x08000596   0x00000020   Code   RO         4164    .text               mc_w.l(llushr.o)
    0x080005b6   0x080005b6   0x00000024   Code   RO         4166    .text               mc_w.l(llsshr.o)
    0x080005da   0x080005da   0x00000000   Code   RO         4168    .text               mc_w.l(iusefp.o)
    0x080005da   0x080005da   0x0000006e   Code   RO         4169    .text               mf_w.l(fepilogue.o)
    0x08000648   0x08000648   0x000000ba   Code   RO         4171    .text               mf_w.l(depilogue.o)
    0x08000702   0x08000702   0x00000002   PAD
    0x08000704   0x08000704   0x00000024   Code   RO         4173    .text               mc_w.l(init.o)
    0x08000728   0x08000728   0x00000016   Code   RO         1153    i.ADC_Cmd           stm32f10x_adc.o
    0x0800073e   0x0800073e   0x00000002   PAD
    0x08000740   0x08000740   0x0000005c   Code   RO         1155    i.ADC_DeInit        stm32f10x_adc.o
    0x0800079c   0x0800079c   0x00000014   Code   RO         1161    i.ADC_GetCalibrationStatus  stm32f10x_adc.o
    0x080007b0   0x080007b0   0x00000008   Code   RO         1162    i.ADC_GetConversionValue  stm32f10x_adc.o
    0x080007b8   0x080007b8   0x00000012   Code   RO         1164    i.ADC_GetFlagStatus  stm32f10x_adc.o
    0x080007ca   0x080007ca   0x00000014   Code   RO         1167    i.ADC_GetResetCalibrationStatus  stm32f10x_adc.o
    0x080007de   0x080007de   0x00000002   PAD
    0x080007e0   0x080007e0   0x00000050   Code   RO         1171    i.ADC_Init          stm32f10x_adc.o
    0x08000830   0x08000830   0x000000b8   Code   RO         1175    i.ADC_RegularChannelConfig  stm32f10x_adc.o
    0x080008e8   0x080008e8   0x0000000a   Code   RO         1176    i.ADC_ResetCalibration  stm32f10x_adc.o
    0x080008f2   0x080008f2   0x00000016   Code   RO         1178    i.ADC_SoftwareStartConvCmd  stm32f10x_adc.o
    0x08000908   0x08000908   0x0000000a   Code   RO         1180    i.ADC_StartCalibration  stm32f10x_adc.o
    0x08000912   0x08000912   0x00000004   Code   RO          138    i.BusFault_Handler  stm32f10x_it.o
    0x08000916   0x08000916   0x00000002   Code   RO          139    i.DebugMon_Handler  stm32f10x_it.o
    0x08000918   0x08000918   0x00000116   Code   RO         2286    i.GPIO_Init         stm32f10x_gpio.o
    0x08000a2e   0x08000a2e   0x00000004   Code   RO         2293    i.GPIO_ResetBits    stm32f10x_gpio.o
    0x08000a32   0x08000a32   0x00000004   Code   RO         2294    i.GPIO_SetBits      stm32f10x_gpio.o
    0x08000a36   0x08000a36   0x00000004   Code   RO          140    i.HardFault_Handler  stm32f10x_it.o
    0x08000a3a   0x08000a3a   0x00000004   Code   RO          141    i.MemManage_Handler  stm32f10x_it.o
    0x08000a3e   0x08000a3e   0x00000002   Code   RO          142    i.NMI_Handler       stm32f10x_it.o
    0x08000a40   0x08000a40   0x00000014   Code   RO         1106    i.NVIC_PriorityGroupConfig  misc.o
    0x08000a54   0x08000a54   0x00000002   Code   RO          143    i.PendSV_Handler    stm32f10x_it.o
    0x08000a56   0x08000a56   0x00000002   PAD
    0x08000a58   0x08000a58   0x00000018   Code   RO         2703    i.RCC_ADCCLKConfig  stm32f10x_rcc.o
    0x08000a70   0x08000a70   0x00000020   Code   RO         2705    i.RCC_APB1PeriphClockCmd  stm32f10x_rcc.o
    0x08000a90   0x08000a90   0x00000020   Code   RO         2707    i.RCC_APB2PeriphClockCmd  stm32f10x_rcc.o
    0x08000ab0   0x08000ab0   0x00000020   Code   RO         2708    i.RCC_APB2PeriphResetCmd  stm32f10x_rcc.o
    0x08000ad0   0x08000ad0   0x000000d4   Code   RO         2715    i.RCC_GetClocksFreq  stm32f10x_rcc.o
    0x08000ba4   0x08000ba4   0x00000002   Code   RO          144    i.SVC_Handler       stm32f10x_it.o
    0x08000ba6   0x08000ba6   0x00000008   Code   RO          284    i.SetSysClock       system_stm32f10x.o
    0x08000bae   0x08000bae   0x00000002   PAD
    0x08000bb0   0x08000bb0   0x000000e0   Code   RO          285    i.SetSysClockTo72   system_stm32f10x.o
    0x08000c90   0x08000c90   0x00000028   Code   RO         1109    i.SysTick_CLKSourceConfig  misc.o
    0x08000cb8   0x08000cb8   0x00000002   Code   RO          145    i.SysTick_Handler   stm32f10x_it.o
    0x08000cba   0x08000cba   0x00000002   PAD
    0x08000cbc   0x08000cbc   0x00000060   Code   RO          287    i.SystemInit        system_stm32f10x.o
    0x08000d1c   0x08000d1c   0x00000048   Code   RO          634    i.TIM5_IRQHandler   encoders.o
    0x08000d64   0x08000d64   0x00000006   Code   RO         3343    i.TIM_ClearITPendingBit  stm32f10x_tim.o
    0x08000d6a   0x08000d6a   0x00000018   Code   RO         3348    i.TIM_Cmd           stm32f10x_tim.o
    0x08000d82   0x08000d82   0x00000022   Code   RO         3369    i.TIM_GetITStatus   stm32f10x_tim.o
    0x08000da4   0x08000da4   0x000000a0   Code   RO         3387    i.TIM_OC3Init       stm32f10x_tim.o
    0x08000e44   0x08000e44   0x00000012   Code   RO         3390    i.TIM_OC3PreloadConfig  stm32f10x_tim.o
    0x08000e56   0x08000e56   0x00000002   PAD
    0x08000e58   0x08000e58   0x0000007c   Code   RO         3392    i.TIM_OC4Init       stm32f10x_tim.o
    0x08000ed4   0x08000ed4   0x0000001a   Code   RO         3394    i.TIM_OC4PreloadConfig  stm32f10x_tim.o
    0x08000eee   0x08000eee   0x00000004   Code   RO         3411    i.TIM_SetCompare3   stm32f10x_tim.o
    0x08000ef2   0x08000ef2   0x00000006   Code   RO         3412    i.TIM_SetCompare4   stm32f10x_tim.o
    0x08000ef8   0x08000ef8   0x000000a4   Code   RO         3419    i.TIM_TimeBaseInit  stm32f10x_tim.o
    0x08000f9c   0x08000f9c   0x00000018   Code   RO         3887    i.USART_Cmd         stm32f10x_usart.o
    0x08000fb4   0x08000fb4   0x0000001a   Code   RO         3890    i.USART_GetFlagStatus  stm32f10x_usart.o
    0x08000fce   0x08000fce   0x00000002   PAD
    0x08000fd0   0x08000fd0   0x000000d8   Code   RO         3894    i.USART_Init        stm32f10x_usart.o
    0x080010a8   0x080010a8   0x00000008   Code   RO         3904    i.USART_SendData    stm32f10x_usart.o
    0x080010b0   0x080010b0   0x00000004   Code   RO          146    i.UsageFault_Handler  stm32f10x_it.o
    0x080010b4   0x080010b4   0x0000000e   Code   RO         4177    i.__scatterload_copy  mc_w.l(handlers.o)
    0x080010c2   0x080010c2   0x00000002   Code   RO         4178    i.__scatterload_null  mc_w.l(handlers.o)
    0x080010c4   0x080010c4   0x0000000e   Code   RO         4179    i.__scatterload_zeroinit  mc_w.l(handlers.o)
    0x080010d2   0x080010d2   0x00000060   Code   RO          919    i.camera_adc_get_middle  tsl1401.o
    0x08001132   0x08001132   0x00000002   PAD
    0x08001134   0x08001134   0x00000034   Code   RO          920    i.camera_adc_get_value  tsl1401.o
    0x08001168   0x08001168   0x00000090   Code   RO          921    i.camera_adc_init   tsl1401.o
    0x080011f8   0x080011f8   0x000000b8   Code   RO          922    i.camera_capture    tsl1401.o
    0x080012b0   0x080012b0   0x0000002c   Code   RO          923    i.camera_gpio_init  tsl1401.o
    0x080012dc   0x080012dc   0x0000000e   Code   RO          924    i.camera_init       tsl1401.o
    0x080012ea   0x080012ea   0x00000002   PAD
    0x080012ec   0x080012ec   0x00000044   Code   RO          392    i.delay_init        delay.o
    0x08001330   0x08001330   0x0000002a   Code   RO          394    i.delay_ns          delay.o
    0x0800135a   0x0800135a   0x0000004e   Code   RO          925    i.frame_average_filter_3kernels  tsl1401.o
    0x080013a8   0x080013a8   0x0000001e   Code   RO          928    i.frame_binarized_1  tsl1401.o
    0x080013c6   0x080013c6   0x0000003e   Code   RO          930    i.frame_find_middle_point  tsl1401.o
    0x08001404   0x08001404   0x0000001c   Code   RO          931    i.frame_upload      tsl1401.o
    0x08001420   0x08001420   0x00000020   Code   RO          670    i.led_all_toggle_high  indicators.o
    0x08001440   0x08001440   0x00000040   Code   RO          672    i.led_gpio_init     indicators.o
    0x08001480   0x08001480   0x0000000e   Code   RO          673    i.led_init          indicators.o
    0x0800148e   0x0800148e   0x00000034   Code   RO            1    i.main              main.o
    0x080014c2   0x080014c2   0x00000002   PAD
    0x080014c4   0x080014c4   0x0000001c   Code   RO          801    i.motor_go_ahead    motor.o
    0x080014e0   0x080014e0   0x00000044   Code   RO          803    i.motor_gpio_init   motor.o
    0x08001524   0x08001524   0x00000030   Code   RO          804    i.motor_init        motor.o
    0x08001554   0x08001554   0x0000026c   Code   RO          806    i.motor_pid_calculation  motor.o
    0x080017c0   0x080017c0   0x0000001e   Code   RO          808    i.motor_set_pwm     motor.o
    0x080017de   0x080017de   0x0000008e   Code   RO          809    i.motor_tim_init    motor.o
    0x0800186c   0x0800186c   0x0000002c   Code   RO          894    i.switches_gpio_init  switches.o
    0x08001898   0x08001898   0x0000007c   Code   RO          582    i.usart1_init       config.o
    0x08001914   0x08001914   0x0000003c   Code   RO          583    i.usart1_printf     config.o
    0x08001950   0x08001950   0x00000024   Code   RO          318    i.xunji             match.o
    0x08001974   0x08001974   0x00000020   Data   RO         4175    Region$$Table       anon$$obj.o


    Execution Region RW_IRAM1 (Exec base: 0x20000000, Load base: 0x08001994, Size: 0x000006f0, Max: 0x0000c000, ABSOLUTE)

    Exec Addr    Load Addr    Size         Type   Attr      Idx    E Section Name        Object

    0x20000000   0x08001994   0x00000014   Data   RW          288    .data               system_stm32f10x.o
    0x20000014   0x080019a8   0x00000001   Data   RW          319    .data               match.o
    0x20000015   0x080019a9   0x00000001   PAD
    0x20000016   0x080019aa   0x00000004   Data   RW          396    .data               delay.o
    0x2000001a   0x080019ae   0x00000004   Data   RW          638    .data               encoders.o
    0x2000001e   0x080019b2   0x00000002   PAD
    0x20000020   0x080019b4   0x00000018   Data   RW          811    .data               motor.o
    0x20000038   0x080019cc   0x00000001   Data   RW          933    .data               tsl1401.o
    0x20000039   0x080019cd   0x00000014   Data   RW         2735    .data               stm32f10x_rcc.o
    0x2000004d   0x080019e1   0x00000003   PAD
    0x20000050        -       0x00000020   Zero   RW          810    .bss                motor.o
    0x20000070        -       0x00000280   Zero   RW          932    .bss                tsl1401.o
    0x200002f0        -       0x00000400   Zero   RW         4120    STACK               startup_stm32f10x_hd.o


==============================================================================

Image component sizes


      Code (inc. data)   RO Data    RW Data    ZI Data      Debug   Object Name

       184         14          0          0          0       1714   config.o
       110         18          0          4          0       1408   delay.o
        72         18          0          4          0       1008   encoders.o
         0          0          0          0          0      23680   i2c.o
       110         16          0          0          0     222605   indicators.o
        52          0          0          0          0      34203   main.o
        36          8          0          1          0        621   match.o
        60         10          0          0          0        981   misc.o
       936         40          0         24         32       4238   motor.o
        36          8        304          0       1024        788   startup_stm32f10x_hd.o
       486         24          0          0          0      17294   stm32f10x_adc.o
       286          0          0          0          0       2900   stm32f10x_gpio.o
        26          0          0          0          0       3646   stm32f10x_it.o
       332         44          0         20          0      14114   stm32f10x_rcc.o
       566         62          0          0          0      26657   stm32f10x_tim.o
       274          6          0          0          0       9912   stm32f10x_usart.o
        44          4          0          0          0        525   switches.o
         0          0          0          0          0     203116   sys.o
       328         28          0         20          0       2045   system_stm32f10x.o
       732         44          0          1        640       6800   tsl1401.o

    ----------------------------------------------------------------------
      4690        344        336         80       1696     578255   Object Totals
         0          0         32          0          0          0   (incl. Generated)
        20          0          0          6          0          0   (incl. Padding)

    ----------------------------------------------------------------------

      Code (inc. data)   RO Data    RW Data    ZI Data      Debug   Library Member Name

         0          0          0          0          0          0   entry.o
         0          0          0          0          0          0   entry10a.o
         0          0          0          0          0          0   entry11a.o
         4          0          0          0          0          0   entry12b.o
         8          4          0          0          0          0   entry2.o
         4          0          0          0          0          0   entry5.o
         0          0          0          0          0          0   entry7b.o
         0          0          0          0          0          0   entry8b.o
         8          4          0          0          0          0   entry9a.o
        30          0          0          0          0          0   handlers.o
        36          8          0          0          0         68   init.o
         0          0          0          0          0          0   iusefp.o
        30          0          0          0          0         68   llshl.o
        36          0          0          0          0         68   llsshr.o
        32          0          0          0          0         68   llushr.o
       334          0          0          0          0        148   dadd.o
       222          0          0          0          0        100   ddiv.o
       186          0          0          0          0        176   depilogue.o
        62          0          0          0          0         80   dfixi.o
        34          0          0          0          0         76   dflti.o
       228          0          0          0          0         96   dmul.o
        38          0          0          0          0         68   f2d.o
       110          0          0          0          0        168   fepilogue.o
        18          0          0          0          0         68   fflti.o
       100          0          0          0          0         76   fmul.o

    ----------------------------------------------------------------------
      1522         16          0          0          0       1328   Library Totals
         2          0          0          0          0          0   (incl. Padding)

    ----------------------------------------------------------------------

      Code (inc. data)   RO Data    RW Data    ZI Data      Debug   Library Name

       188         16          0          0          0        272   mc_w.l
      1332          0          0          0          0       1056   mf_w.l

    ----------------------------------------------------------------------
      1522         16          0          0          0       1328   Library Totals

    ----------------------------------------------------------------------

==============================================================================


      Code (inc. data)   RO Data    RW Data    ZI Data      Debug   

      6212        360        336         80       1696     575471   Grand Totals
      6212        360        336         80       1696     575471   ELF Image Totals
      6212        360        336         80          0          0   ROM Totals

==============================================================================

    Total RO  Size (Code + RO Data)                 6548 (   6.39kB)
    Total RW  Size (RW Data + ZI Data)              1776 (   1.73kB)
    Total ROM Size (Code + RO Data + RW Data)       6628 (   6.47kB)

==============================================================================

